:100000000C9462000C948A000C948A000C948A0070
:100010000C948A000C948A000C948A000C947A0345
:100020000C948A000C948A000C948A000C948A0028
:100030000C948A000C948A000C948A000C948A0018
:100040000C9430030C948A000C94FE020C94D80299
:100050000C948A000C948A000C948A000C948A00F8
:100060000C948A000C948A000000000023002600F3
:10007000290000000000240027002A0000000000E2
:10008000250028002B0004040404040404040202D4
:100090000202020203030303030301020408102007
:1000A0004080010204081020010204081020000012
:1000B0000008000201000003040700000000000027
:1000C0000000570411241FBECFEFD8E0DEBFCDBF24
:1000D00011E0A0E0B1E0E0EBFEE102C005900D927E
:1000E000A232B107D9F722E0A2E2B1E001C01D922D
:1000F000AA3AB207E1F710E0C2E6D0E004C02197C7
:10010000FE010E94410FC136D107C9F70E94890440
:100110000C94560F0C940000AF92BF92CF92DF92D6
:10012000EF92FF920F931F93CF93DF936C017B01AC
:100130008B01040F151FEB015E01AE18BF08C0173D
:10014000D10759F06991D601ED91FC910190F081B0
:10015000E02DC6010995892B79F7C501DF91CF9173
:100160001F910F91FF90EF90DF90CF90BF90AF90D5
:100170000895FC01538D448D252F30E0842F90E0AD
:10018000821B930B541710F0CF9608950197089592
:10019000FC01918D828D981761F0A28DAE0FBF2F5B
:1001A000B11D5D968C91928D9F5F9F73928F90E0B1
:1001B00008958FEF9FEF0895FC01918D828D981720
:1001C00031F0828DE80FF11D858D90E008958FEF5D
:1001D0009FEF0895FC01918D228D892F90E0805C26
:1001E0009F4F821B91098F73992708958BE391E0AC
:1001F0000E94EA0021E0892B09F420E0822F089573
:1002000080E090E0892B29F00E94F60081110C9487
:1002100000000895FC01A48DA80FB92FB11DA35AA9
:10022000BF4F2C91848D90E001968F739927848F16
:10023000A689B7892C93A089B1898C918370806439
:100240008C93938D848D981306C00288F389E02DDA
:1002500080818F7D80830895EF92FF920F931F938B
:10026000CF93DF93EC0181E0888F9B8D8C8D981369
:100270001AC0E889F989808185FF15C09FB7F89475
:10028000EE89FF896083E889F989808183708064C1
:1002900080839FBF81E090E0DF91CF911F910F910C
:1002A000FF90EF900895F62E0B8D10E00F5F1F4F1B
:1002B0000F731127E02E8C8D8E110CC00FB607FC2A
:1002C000FACFE889F989808185FFF5CFCE010E94B8
:1002D0000A01F1CFEB8DEC0FFD2FF11DE35AFF4F1B
:1002E000F0829FB7F8940B8FEA89FB898081806246
:1002F000CFCFCF93DF93EC01888D8823B9F0AA8903
:10030000BB89E889F9898C9185FD03C0808186FDD0
:100310000DC00FB607FCF7CF8C9185FFF2CF80811F
:1003200085FFEDCFCE010E940A01E9CFDF91CF9189
:100330000895833081F028F4813099F08230A9F05B
:1003400008958730A9F08830C9F08430B1F48091E5
:1003500080008F7D03C0809180008F778093800024
:10036000089584B58F7784BD089584B58F7DFBCFC4
:100370008091B0008F778093B00008958091B00095
:100380008F7DF9CF1F93CF93DF93282F30E0F901B2
:10039000E255FF4F8491F901E656FF4FD491F901E0
:1003A000EA57FF4FC491CC23A9F0162F81110E9468
:1003B0009901EC2FF0E0EE0FFF1FE458FF4FA591DD
:1003C000B4918FB7F894EC91111108C0D095DE2349
:1003D000DC938FBFDF91CF911F910895DE2BF8CF73
:1003E000CF93DF9390E0FC01E656FF4F24918A57AC
:1003F0009F4FFC0184918823D1F090E0880F991FD2
:10040000FC01EE58FF4FA591B491FC01E458FF4F59
:10041000C591D49161110EC09FB7F8948C91E22FD1
:10042000E0958E238C932881E223E8839FBFDF91A0
:10043000CF9108958FB7F894EC91E22BEC938FBF96
:10044000F6CFCF92DF92EF92FF92CF93DF93EC0142
:10045000072E000C880B990B0E94D30D6B017C01B9
:1004600020E030E040E45FE30E94830E20E030E0D3
:1004700048E452E40E94290D0E949B0DC617D7073D
:10048000D4F020E030E040EA5FE3C701B6010E940B
:10049000830E20E030E048E452E40E94290D20E081
:1004A00030E040E85FE30E94B80C0E949B0D21E021
:1004B0006C177D070CF420E0822F90E0DF91CF9144
:1004C000FF90EF90DF90CF9008958F929F92AF9220
:1004D000BF92CF92DF92EF92FF920F931F93CF9331
:1004E000DF93FC0120813181E0913701F0913801E7
:1004F00001E010E02E173F070CF045C0D901AA0F0C
:10050000BB1FE0913501F0913601EA0FFB1FA0807F
:10051000B1808901009510950170112720FD27C039
:100520002CE93FEFEA016B017C014901840E951E25
:10053000B401C5010E94210221E030E0892BD1F4F1
:100540008C0E9D1EB401C5010E94210222E030E004
:10055000892B81F4BE01680D791DC5010E9421021D
:1005600023E030E0892B31F40FEF1FEF0CC024E6BD
:1005700030E0D8CFF60180819181019682179307F0
:1005800084F491838083C801DF91CF911F910F91F3
:10059000FF90EF90DF90CF90BF90AF909F908F90A3
:1005A000089511821082F701808191810196E9CF2F
:1005B0001F920F920FB60F9211242F933F934F93D8
:1005C0005F936F937F938F939F93AF93BF93EF93BB
:1005D000FF938BE391E00E940A01FF91EF91BF919D
:1005E000AF919F918F917F916F915F914F913F91CB
:1005F0002F910F900FBE0F901F9018951F920F9282
:100600000FB60F9211242F938F939F93EF93FF9325
:10061000E0914B01F0914C018081E0915101F0910A
:10062000520182FD1BC09081809154018F5F8F73B6
:1006300020915501821741F0E0915401F0E0E55C12
:10064000FE4F958F80935401FF91EF919F918F9171
:100650002F910F900FBE0F901F9018958081F4CFAF
:100660001F920F920FB60F9211242F933F938F93E7
:100670009F93AF93BF938091270190912801A09100
:100680002901B0912A013091260123E0230F2D3753
:1006900058F50196A11DB11D2093260180932701D5
:1006A00090932801A0932901B0932A0180912201FF
:1006B00090912301A0912401B09125010196A11DE3
:1006C000B11D8093220190932301A0932401B09344
:1006D0002501BF91AF919F918F913F912F910F90E5
:1006E0000FBE0F901F90189526E8230F0296A11DAC
:1006F000B11DD2CF1F920F920FB60F9211242F93DC
:100700003F934F935F936F937F938F939F93AF9399
:10071000BF93CF93DF93EF93FF932091D90130E004
:10072000F901E255FF4F8491F901E656FF4FD4914C
:10073000F901EA57FF4FC491CC2379F081110E944F
:100740009901EC2FF0E0EE0FFF1FE859FF4FA59144
:10075000B491EC91ED2381E009F480E02091DD017A
:100760003091DE012F5F3F4F3093DE012093DD019A
:100770009091DC01953618F096E09093D801909115
:10078000D801943009F466C0B8F49230F1F0933097
:1007900009F444C09091DB01992309F46BC08111E5
:1007A0007CC08091DA01882309F463C08091DA016A
:1007B00061E00E94C2015EC0953009F457C09630D6
:1007C00049F791E09093A9024FC08111E3CF2091A6
:1007D000DD013091DE012436310528F41092DE016E
:1007E0001092DD01D7CF1092A9021092DC01E091A6
:1007F000DC0191E09E0F9093DC01F0E02091DD019F
:100800003091DE01EE0FFF1FE852FE4F3087278345
:100810001092DE011092DD0193E019C0813009F0E1
:10082000B9CFE091DC0191E09E0F9093DC01F0E004
:100830002091DD013091DE01EE0FFF1FE852FE4FE7
:10084000308727831092DE011092DD0194E09093AF
:10085000D801A0CF882359F22091DD013091DE012B
:100860002536310508F496CF95E0F1CF811192CF6E
:10087000B5CF2D9AFF91EF91DF91CF91BF91AF91BD
:100880009F918F917F916F915F914F913F912F91A8
:100890000F900FBE0F901F9018958091DA0188235A
:1008A00021F08091DA0160E084CF2D98E3CFEBE373
:1008B000F1E01382128288EE93E0A0E0B0E084833E
:1008C0009583A683B78380E191E09183808385EC53
:1008D00090E09587848784EC90E09787868780EC0A
:1008E00090E0918B808B81EC90E0938B828B82ECFB
:1008F00090E0958B848B86EC90E0978B868B118EA5
:10090000128E138E148EE8EDF1E082E08183138263
:100910000895CF93DF93CDB7DEB7AB970FB6F894BA
:10092000DEBF0FBECDBF789484B5826084BD84B530
:10093000816084BD85B5826085BD85B5816085BDDA
:1009400080916E00816080936E0010928100809192
:10095000810082608093810080918100816080931A
:100960008100809180008160809380008091B1003F
:1009700084608093B1008091B00081608093B0006A
:1009800080917A00846080937A0080917A008260FE
:1009900080937A0080917A00816080937A008091C0
:1009A0007A00806880937A001092C100E0914B0138
:1009B000F0914C0182E08083E0914701F091480181
:1009C0001082E0914901F0914A019FEC90831092CE
:1009D0005301E0914F01F091500196E09083E09136
:1009E0004D01F0914E01908190619083E0914D0115
:1009F000F0914E01908198609083E0914D01F091CB
:100A00004E01908190689083E0914D01F0914E01EC
:100A100090819F7D9083F8948093B0008093B10083
:100A200094E69093B3001092B20080937000789493
:100A30008093D8011092DC018091D90160E00E947E
:100A4000F00161E088E00E94F00161E089E00E942D
:100A5000F00161E08AE00E94F00161E08BE00E9419
:100A6000F00161E08CE00E94F00161E08DE00E9405
:100A7000F00161E087E00E94F00144244A94542C84
:100A80003201A0E22A2E312C8FED91E090933601B5
:100A9000809335018091DC0190E090933801809340
:100AA00037018091A90290E090933A018093390137
:100AB0008091D801853009F04BC78091E101909178
:100AC000E201885891098D35910508F051C0809157
:100AD000DC01843009F58091E3019091E401809775
:100AE0004797D0F48091E5019091E6010997099725
:100AF00098F4109234011092330140922F015092D9
:100B00003001609231017092320183E090E0909365
:100B10002C0180932B015AC38091DC01843440F175
:100B20008091E3019091E401825491098E9700F540
:100B300090E080E040E050E0BA01FC01EB51FE4F54
:100B400020813181295031092930310588F4FC0197
:100B5000E951FE4F20813181275131092231310580
:100B600010F120813181265031092730310588F17B
:100B70008091DC018A3108F461C08091DF0190919D
:100B8000E001843F914050F51092340110923301FE
:100B900040922F01509230016092310170923201E7
:100BA0008BE090E0B4CF440F551F661F771F416064
:100BB00004968038910509F6309234012092330171
:100BC00040932F01509330016093310170933201B3
:100BD0009CCF440F551F661F771FEACF8091E1011C
:100BE0009091E20185974B9748F5E8EDF1E082E0BE
:100BF00090E0C12CD12C76019C012F5F3F4F40919A
:100C0000DC014217130609F00CF4F6C04385548545
:100C1000475051094730510508F0EDC0258536850C
:100C2000235131092F30310508F4D7C02585368589
:100C30002A5031092930310508F4D8C08091DC01EF
:100C40008A3108F43FC08091DF019091E001803249
:100C5000934008F499CF8091E1019091E201C69709
:100C6000869780F58091E3019091E401C69786977D
:100C700048F5E8EDF1E083E090E0C12CD12C76015D
:100C80009C012F5F3F4F4091DC014217130609F092
:100C90000CF4DAC0458556854C5051094B3051054E
:100CA00008F0D1C027853089255231092B31310513
:100CB00008F4BBC0278530892C5031092A30310512
:100CC00008F4BCC08091DC01823238F18091E101EE
:100CD0009091E2010697079700F5E8EDF1E082E0D8
:100CE00090E040E050E0BA01DC0111962091DC0177
:100CF0002A171B0609F00CF4D3C0238534852E5126
:100D000031092731310508F4B6C0238534852C50CC
:100D100031092B30310508F4BDC01BA21AA2E1E055
:100D2000F0E0FA83E9838091DC018D3008F4E9C0BA
:100D300049E753E0BE016E5D7F4FCE0101960E94F0
:100D40006502892B09F0DDC049E753E0BE016E5D05
:100D50007F4FCE0101960E946502019709F0D1C034
:100D600049E753E0BE016E5D7F4FCE0101960E94C0
:100D700065028C01892B09F0C4C0812C912C54018F
:100D80002091DC0189819A812817190609F00CF459
:100D9000A9C049E753E0BE016E5D7F4FCE010196C9
:100DA0000E9465027C0149E753E0BE016E5D7F4F02
:100DB000CE0101960E946502F1E0EF16F10409F000
:100DC00088C0892B09F09DC0880C991CAA1CBB1CEB
:100DD000689480F80F5F1F4FD3CFCC0CDD1CEE1C46
:100DE000FF1C6894C0F80296349606CFCC0CDD1C2C
:100DF000EE1CFF1CF8CFC90101979595879590933C
:100E00003401809333010C972CF41092340110922A
:100E1000330114CFC0922F01D0923001E092310102
:100E2000F092320184E090E072CECC0CDD1CEE1C1E
:100E3000FF1C6894C0F80296349622CFCC0CDD1CBF
:100E4000EE1CFF1CF8CFC9010197959587959093EB
:100E50003401809333010C972CF4109234011092DA
:100E6000330130CFC0922F01D0923001E092310196
:100E7000F092320195CE440F551F661F771F4160D7
:100E8000258536853496235031092530310538F4CF
:100E900002962ACF440F551F661F771FF1CFCD0151
:100EA00001979595879590933401809333014097EE
:100EB0002CF410923401109233012FCF40932F0164
:100EC0005093300160933101709332018CE090E0D7
:100ED0001ECEEF28B1F40197A1F4880C991CAA1C2E
:100EE000BB1C78CF109334010093330180922F0103
:100EF00090923001A0923101B092320181E090E0F5
:100F000006CE1BA21AA2A1E0B0E0BA83A983809109
:100F1000370190913801181619060CF07EC0E09147
:100F20003501F091360182E090E09A8389838281D5
:100F3000938189974E9708F070C083E090E09A8380
:100F40008983848195810B970A9708F066C04CEBE2
:100F500051E0BE016E5D7F4FCE0101960E94650299
:100F60008C01892B09F059C04CEB51E0BE016E5D3C
:100F70007F4FCE0101960E946502019709F04DC096
:100F8000812C912C540120913701309138018981B5
:100F90009A81821793070CF0E2C04CEB51E0BE013E
:100FA0006E5D7F4FCE0101960E9465027C01033089
:100FB000110539F14CEB51E0BE016E5D7F4FCE0162
:100FC00001960E9465026C010330110561F44CEB3F
:100FD00051E0BE016E5D7F4FCE0101960E94650219
:100FE000C816D906D1F4E114F10409F4ABC0EA94AF
:100FF000EF2899F4CD2889F4880C991CAA1CBB1CF5
:10100000ABC04CEB51E0BE016E5D7F4FCE0101964F
:101010000E946502E816F90669F2E0913501F09147
:10102000360182819381C697869778F58481958170
:101030004B97459750F5DF0116967F0126ECE20E9F
:10104000F11C20E030E040E050E060E070E080E043
:1010500090E00D911C91119709501109083011056C
:10106000A0F412960D911C911397015111090D30A6
:10107000110508F487C012960D911C911397045026
:1010800011090530110508F49BC18091DC018933F9
:1010900080F182819381895791098335910548F5C3
:1010A00084819581CA97899720F59F012A5F3F4FD8
:1010B000C12CD12C760143E050E0D9016D917C9197
:1010C00011976A5071096930710598F412966D9103
:1010D0007C911397665171096131710508F474C1EF
:1010E00012966D917C91665071096730710508F414
:1010F0009AC18091DC01823209F09AC18281938188
:101100000A97099708F094C1A091DC01B0E0A150C2
:10111000B048AA0FBB1FAE0FBF1F8D919C910A97BD
:10112000099708F085C11092340110923301409262
:101130002F0150923001609231017092320186E0AD
:1011400090E0E5CCCA94CD2809F067CF880C991CB3
:10115000AA1CBB1C689480F80F5F1F4F14CF10931C
:1011600034010093330180922F0190923001A092BC
:101170003101B0923201E2E0F0E0F0932C01E09313
:101180002B0124C001E00E940B0F21601496AE15C4
:10119000BF0509F05ECF20932F01309330014093BB
:1011A00031015093320100E20E94260F20932D015D
:1011B00030932E0185E090E090932C0180932B01D9
:1011C00080E390E0909334018093330140912F01AC
:1011D00050913001609131017091320119A2FE01EC
:1011E000B196DB01CA018F709927AA27BB2794E02B
:1011F00076956795579547959A95D1F78A300CF073
:10120000B4C3805D8293411551056105710549F7AD
:10121000309769F0DF010D900020E9F71197AD01DB
:101220004E1B5F0BBF018BE391E00E948C0042E0FC
:1012300050E06EE171E08BE391E00E948C0082E06F
:101240008093D8011092DC0180912F0190913001A0
:10125000A0913101B0913201803E9B43A648B84332
:1012600091F400910A0110910B01602F88E00E9417
:10127000C20181E090E0012B11F090E080E09093BA
:101280000B0180930A0180912F0190913001A09170
:101290003101B0913201803D9B43A648B84391F49F
:1012A0000091080110910901602F89E00E94C2019C
:1012B00081E090E0012B11F090E080E09093090133
:1012C0008093080180912F0190913001A09131010C
:1012D000B0913201803F9B43A648B84391F40091FE
:1012E000060110910701602F8AE00E94C20181E08F
:1012F00090E0012B11F090E080E090930701809343
:10130000060180912F0190913001A0913101B0919F
:101310003201883E9B43A648B84391F400910401F2
:1013200010910501602F8CE00E94C20181E090E0E5
:10133000012B11F090E080E090930501809304016F
:1013400080912F0190913001A0913101B091320133
:10135000883D9B43A648B84391F400910201109147
:101360000301602F8DE00E94C20181E090E0012B1B
:1013700011F090E080E0909303018093020180914E
:101380002F0190913001A0913101B0913201883F3D
:101390009B43A648B84309F0DBC2009100011091BD
:1013A0000101602F87E00E94C20181E090E0012BE3
:1013B00011F090E080E09093010180930001C8C299
:1013C00001E00E940B0FE2CED701C601880F991FE2
:1013D000AA1FBB1F6C017D016894C0F84E5F5F4F70
:1013E0002C5F3F4F4B33510509F067CE9F012A58C0
:1013F0003F4FD9012D913C912A50310929303105B7
:1014000008F077CE2CE130E03093340120933301A3
:10141000C0922F01D0923001E0923101F09232015E
:101420008AE090E074CBCC0CDD1CEE1CFF1CD6CF08
:1014300082819381895791098335910560F5809167
:10144000DC01813240F184819581CA97899718F532
:101450009F012A5F3F4FC12CD12C760143E050E021
:10146000D9016D917C9111976A50710969307105AC
:1014700090F412966D917C911397665171096131C8
:10148000710580F112966D917C91665071096730FB
:10149000710508F454C0828193818C549109C597D9
:1014A00008F081C08091DC01843009F04DC0848156
:1014B00095818097479708F047C086819781099763
:1014C000099708F041C01092340110923301409204
:1014D0002F0150923001609231017092320187E009
:1014E00090E015CBD701C601880F991FAA1FBB1F1B
:1014F0006C017D016894C0F84E5F5F4F2C5F3F4FD9
:101500004332510509F0ACCF9F012A5B3F4FD9010F
:101510002D913C912A5031092930310508F0BBCF7B
:1015200020E130E03093340120933301C0922F0149
:10153000D0923001E0923101F092320100CECC0C19
:10154000DD1CEE1CFF1CD8CF8091DC01843458F1E7
:101550008481958189549109C39728F59F012A5F59
:101560003F4FBF016A577F4FC12CD12C7601D90163
:101570004D915C911197495051094930510598F4AA
:1015800012964D915C911397465151094131510585
:1015900008F4A2C012964D915C9146505109473013
:1015A000510508F4B6C08091DC018634C0F1828117
:1015B00093810C970B9798F58481958109970997EA
:1015C00070F5868197818C974F9748F58085918536
:1015D00089974D9720F59F01265F3F4FC12CD12C55
:1015E000760145E050E0D9016D917C9111976C50E6
:1015F00071096B30710598F412966D917C91139777
:101600006E5171096731710508F488C012966D91A9
:101610007C91695071096930710508F4ACC0809102
:10162000DC01883508F4B6C0828193818558910920
:101630008B35910508F0AEC0848195818254910963
:101640008E9708F0A7C08F01045C1F4F8DE190E0DA
:1016500030E020E04091DC014450550B84179507A1
:1016600014F5A80142505109DA014D915C9149509D
:1016700051094830510508F08DC0BC016F5F7F4FA4
:10168000D8014D915C911197475051094730510550
:1016900008F476C04D915C91485151094231510591
:1016A00008F475C0CB010197959587959093340107
:1016B000809333018A970CF46DC0C901330FAA0BD4
:1016C000BB0B80932F0190933001A0933101B09315
:1016D000320189E090E01BCAD701C601880F991F2B
:1016E000AA1FBB1F6C017D016894C0F82C5F3F4F9F
:1016F0006217730709F03BCF309234012092330117
:10170000C0922F01D0923001E0923101F09232016B
:10171000E6CECC0CDD1CEE1CFF1CE8CFD701C601C9
:10172000880F991FAA1FBB1F6C017D016894C0F828
:101730004E5F5F4F2C5F3F4F4534510509F053CF4B
:101740009F0126573F4FD9012D913C912C503109D3
:101750002B30310508F063CF3092340120923301F1
:10176000C0922F01D0923001E0923101F09232010B
:1017700088E090E0CCC9CC0CDD1CEE1CFF1CD8CF5F
:10178000220F331F216002960C5F1F4F63CF220F81
:10179000331FF9CF8091DC01803279F5828193810A
:1017A0000697069750F5848195810997099728F542
:1017B0009F012A5F3F4FBF01625C7F4FC12CD12C3C
:1017C0007601D9014D915C911197465051094630EF
:1017D000510598F412964D915C9113974951510916
:1017E0004331510508F489C012964D915C914950DE
:1017F00051094930510508F4A1C0809137019091F9
:1018000038019FA38EA306970CF49DC0DF011296AA
:10181000BDA3ACA325ECC22E2DE9D22E2CE1E22EE5
:1018200021E8F22E03E010E0ECA1FDA164817581B6
:10183000A080B18090E080E00E94D10D68A779A7D8
:101840008AA79BA7B50190E080E00E94D10D4B01D3
:101850005C012DEC3CEC4CE45FE30E94830E9B01A9
:10186000AC0168A579A58AA59BA50E94240DF0E08E
:10187000E0E087FD16C02DEC3CEC4CE45FE368A58E
:1018800079A58AA59BA50E94830E9B01AC01C50189
:10189000B4010E94240DE2E0F0E087FD02C0E1E027
:1018A000F0E0A701960163E971E080E091E00E9419
:1018B000F00E6F01FF0FEE08FF08C626D726E826B8
:1018C000F9260F5F1F4F8CA19DA102969DA38CA3AB
:1018D000AEA1BFA1A017B10709F0A6CFC0922F01FA
:1018E000D0923001E0923101F09232013092340115
:1018F00020923301EFEFFFEF40CCD701C601880FF4
:10190000991FAA1FBB1F6C017D016894C0F82C5F52
:101910003F4F6217730709F054CFEEE0F0E0F09309
:101920003401E0933301C0922F01D0923001E09254
:101930003101F09232018FE090E0E9C8CC0CDD1C5F
:10194000EE1CFF1CE4CF82E08093D8011092DC01F2
:1019500080E090E0892B09F497C80E94F600882364
:1019600009F48FC80E9400008CC8895C4BCC505889
:10197000BB27AA270E94CF0C0C94490E0E943B0E55
:1019800038F00E94420E20F039F49F3F19F426F4FB
:101990000C94380E0EF4E095E7FB0C94320EE92F10
:1019A0000E945A0E58F3BA17620773078407950707
:1019B00020F079F4A6F50C947C0E0EF4E0950B2E35
:1019C000BA2FA02D0B01B90190010C01CA01A00191
:1019D0001124FF27591B99F0593F50F4503E68F1EC
:1019E0001A16F040A22F232F342F4427585FF3CF2D
:1019F000469537952795A795F0405395C9F77EF4FE
:101A00001F16BA0B620B730B840BBAF09150A1F046
:101A1000FF0FBB1F661F771F881FC2F70EC0BA0FCC
:101A2000621F731F841F48F4879577956795B79554
:101A3000F7959E3F08F0B0CF9395880F08F099274F
:101A4000EE0F9795879508950E940E0E08F481E099
:101A500008950E943D0D0C94490E0E94420E58F0CC
:101A60000E943B0E40F029F45F3F29F00C94320EA7
:101A700051110C947D0E0C94380E0E945A0E68F38E
:101A80009923B1F3552391F3951B550BBB27AA2737
:101A900062177307840738F09F5F5F4F220F331F71
:101AA000441FAA1FA9F335D00E2E3AF0E0E832D039
:101AB00091505040E695001CCAF72BD0FE2F29D03C
:101AC000660F771F881FBB1F261737074807AB070E
:101AD000B0E809F0BB0B802DBF01FF2793585F4F83
:101AE0003AF09E3F510578F00C94320E0C947D0E26
:101AF0005F3FE4F3983ED4F3869577956795B79565
:101B0000F7959F5FC9F7880F911D9695879597F96F
:101B10000895E1E0660F771F881FBB1F62177307E8
:101B20008407BA0720F0621B730B840BBA0BEE1FFD
:101B300088F7E09508950E94A20D6894B1110C9465
:101B40007D0E08950E94620E88F09F5798F0B92F7D
:101B50009927B751B0F0E1F0660F771F881F991FE2
:101B60001AF0BA95C9F714C0B13091F00E947C0EFA
:101B7000B1E008950C947C0E672F782F8827B85F0A
:101B800039F0B93FCCF3869577956795B395D9F73A
:101B90003EF490958095709561957F4F8F4F9F4F44
:101BA0000895E89409C097FB3EF490958095709550
:101BB00061957F4F8F4F9F4F9923A9F0F92F96E999
:101BC000BB279395F695879577956795B795F1110E
:101BD000F8CFFAF4BB0F11F460FF1BC06F5F7F4FAB
:101BE0008F4F9F4F16C0882311F096E911C07723BD
:101BF00021F09EE8872F762F05C0662371F096E8C6
:101C0000862F70E060E02AF09A95660F771F881F94
:101C1000DAF7880F9695879597F90895990F000838
:101C2000550FAA0BE0E8FEEF16161706E807F907AE
:101C3000C0F012161306E407F50798F0621B730B49
:101C4000840B950B39F40A2661F0232B242B252BCA
:101C500021F408950A2609F4A140A6958FEF811D6D
:101C6000811D089597F99F6780E870E060E008950E
:101C70009FEF80EC089500240A94161617061806A4
:101C80000906089500240A94121613061406050680
:101C90000895092E0394000C11F4882352F0BB0F11
:101CA00040F4BF2B11F460FF04C06F5F7F4F8F4F74
:101CB0009F4F089557FD9058440F551F59F05F3FAF
:101CC00071F04795880F97FB991F61F09F3F79F05E
:101CD00087950895121613061406551FF2CF4695E0
:101CE000F1DF08C0161617061806991FF1CF869562
:101CF0007105610508940895E894BB276627772746
:101D0000CB0197F908950E94960E0C94490E0E94FB
:101D10003B0E38F00E94420E20F0952311F00C94F7
:101D2000320E0C94380E11240C947D0E0E945A0E23
:101D300070F3959FC1F3950F50E0551F629FF0011E
:101D4000729FBB27F00DB11D639FAA27F00DB11D37
:101D5000AA1F649F6627B00DA11D661F829F2227C0
:101D6000B00DA11D621F739FB00DA11D621F839F47
:101D7000A00D611D221F749F3327A00D611D231F1D
:101D8000849F600D211D822F762F6A2F11249F576B
:101D900050409AF0F1F088234AF0EE0FFF1FBB1F6E
:101DA000661F771F881F91505040A9F79E3F51052D
:101DB00080F00C94320E0C947D0E5F3FE4F3983E5D
:101DC000D4F3869577956795B795F795E7959F5FD7
:101DD000C1F7FE2B880F911D9695879597F9089569
:101DE000DB018F939F930E94000FBF91AF91A29F41
:101DF000800D911DA39F900DB29F900D1124089509
:101E00000E94470FA59F900DB49F900DA49F800D39
:101E1000911D11240895002E083090F0982F872FDF
:101E2000762F652F542F432F322F22270850F4CFBF
:101E3000220F331F441F551F661F771F881F991FCE
:101E40000A95B2F7002D089597FD1094002E0830E2
:101E500098F00850232F342F452F562F672F782FB7
:101E6000892F912DF4CF1594979587957795679540
:101E700057954795379527950A95AAF71124002D70
:101E80000895EE0FFF1F0590F491E02D0994A29F95
:101E9000B001B39FC001A39F700D811D1124911D3E
:101EA000B29F700D811D1124911D0895F894FFCFEC
:101EB000010001000100010001000100000000001C
:101EC0002C018C00B9007901EA00C800DC000D0A81
:021ED000000010
:00000001FF
